{
  "_format": "hh-sol-artifact-1",
  "contractName": "LiliannaRoll",
  "sourceName": "contracts/LiliannaRoll.sol",
  "abi": [
    {
      "inputs": [
        {
          "internalType": "string",
          "name": "uri",
          "type": "string"
        }
      ],
      "stateMutability": "nonpayable",
      "type": "constructor"
    },
    {
      "anonymous": false,
      "inputs": [
        {
          "indexed": true,
          "internalType": "address",
          "name": "owner",
          "type": "address"
        },
        {
          "indexed": true,
          "internalType": "address",
          "name": "approved",
          "type": "address"
        },
        {
          "indexed": true,
          "internalType": "uint256",
          "name": "tokenId",
          "type": "uint256"
        }
      ],
      "name": "Approval",
      "type": "event"
    },
    {
      "anonymous": false,
      "inputs": [
        {
          "indexed": true,
          "internalType": "address",
          "name": "owner",
          "type": "address"
        },
        {
          "indexed": true,
          "internalType": "address",
          "name": "operator",
          "type": "address"
        },
        {
          "indexed": false,
          "internalType": "bool",
          "name": "approved",
          "type": "bool"
        }
      ],
      "name": "ApprovalForAll",
      "type": "event"
    },
    {
      "anonymous": false,
      "inputs": [
        {
          "indexed": false,
          "internalType": "address",
          "name": "account",
          "type": "address"
        }
      ],
      "name": "Paused",
      "type": "event"
    },
    {
      "anonymous": false,
      "inputs": [
        {
          "indexed": true,
          "internalType": "bytes32",
          "name": "role",
          "type": "bytes32"
        },
        {
          "indexed": true,
          "internalType": "bytes32",
          "name": "previousAdminRole",
          "type": "bytes32"
        },
        {
          "indexed": true,
          "internalType": "bytes32",
          "name": "newAdminRole",
          "type": "bytes32"
        }
      ],
      "name": "RoleAdminChanged",
      "type": "event"
    },
    {
      "anonymous": false,
      "inputs": [
        {
          "indexed": true,
          "internalType": "bytes32",
          "name": "role",
          "type": "bytes32"
        },
        {
          "indexed": true,
          "internalType": "address",
          "name": "account",
          "type": "address"
        },
        {
          "indexed": true,
          "internalType": "address",
          "name": "sender",
          "type": "address"
        }
      ],
      "name": "RoleGranted",
      "type": "event"
    },
    {
      "anonymous": false,
      "inputs": [
        {
          "indexed": true,
          "internalType": "bytes32",
          "name": "role",
          "type": "bytes32"
        },
        {
          "indexed": true,
          "internalType": "address",
          "name": "account",
          "type": "address"
        },
        {
          "indexed": true,
          "internalType": "address",
          "name": "sender",
          "type": "address"
        }
      ],
      "name": "RoleRevoked",
      "type": "event"
    },
    {
      "anonymous": false,
      "inputs": [
        {
          "indexed": true,
          "internalType": "address",
          "name": "from",
          "type": "address"
        },
        {
          "indexed": true,
          "internalType": "address",
          "name": "to",
          "type": "address"
        },
        {
          "indexed": true,
          "internalType": "uint256",
          "name": "tokenId",
          "type": "uint256"
        }
      ],
      "name": "Transfer",
      "type": "event"
    },
    {
      "anonymous": false,
      "inputs": [
        {
          "indexed": false,
          "internalType": "address",
          "name": "account",
          "type": "address"
        }
      ],
      "name": "Unpaused",
      "type": "event"
    },
    {
      "inputs": [],
      "name": "CURATOR_ROLE",
      "outputs": [
        {
          "internalType": "bytes32",
          "name": "",
          "type": "bytes32"
        }
      ],
      "stateMutability": "view",
      "type": "function"
    },
    {
      "inputs": [],
      "name": "DEFAULT_ADMIN_ROLE",
      "outputs": [
        {
          "internalType": "bytes32",
          "name": "",
          "type": "bytes32"
        }
      ],
      "stateMutability": "view",
      "type": "function"
    },
    {
      "inputs": [],
      "name": "MINTER_ROLE",
      "outputs": [
        {
          "internalType": "bytes32",
          "name": "",
          "type": "bytes32"
        }
      ],
      "stateMutability": "view",
      "type": "function"
    },
    {
      "inputs": [],
      "name": "PAUSER_ROLE",
      "outputs": [
        {
          "internalType": "bytes32",
          "name": "",
          "type": "bytes32"
        }
      ],
      "stateMutability": "view",
      "type": "function"
    },
    {
      "inputs": [
        {
          "internalType": "address",
          "name": "to",
          "type": "address"
        },
        {
          "internalType": "uint256",
          "name": "tokenId",
          "type": "uint256"
        }
      ],
      "name": "approve",
      "outputs": [],
      "stateMutability": "nonpayable",
      "type": "function"
    },
    {
      "inputs": [
        {
          "internalType": "uint256",
          "name": "collectionId",
          "type": "uint256"
        },
        {
          "internalType": "bytes",
          "name": "proof",
          "type": "bytes"
        }
      ],
      "name": "authorize",
      "outputs": [],
      "stateMutability": "nonpayable",
      "type": "function"
    },
    {
      "inputs": [
        {
          "internalType": "uint256",
          "name": "collectionId",
          "type": "uint256"
        },
        {
          "internalType": "address",
          "name": "recipient",
          "type": "address"
        },
        {
          "internalType": "bytes",
          "name": "proof",
          "type": "bytes"
        }
      ],
      "name": "authorizeFor",
      "outputs": [],
      "stateMutability": "nonpayable",
      "type": "function"
    },
    {
      "inputs": [
        {
          "internalType": "address",
          "name": "owner",
          "type": "address"
        }
      ],
      "name": "balanceOf",
      "outputs": [
        {
          "internalType": "uint256",
          "name": "",
          "type": "uint256"
        }
      ],
      "stateMutability": "view",
      "type": "function"
    },
    {
      "inputs": [],
      "name": "baseTokenURI",
      "outputs": [
        {
          "internalType": "string",
          "name": "",
          "type": "string"
        }
      ],
      "stateMutability": "view",
      "type": "function"
    },
    {
      "inputs": [
        {
          "internalType": "uint256",
          "name": "tokenId",
          "type": "uint256"
        }
      ],
      "name": "burn",
      "outputs": [],
      "stateMutability": "nonpayable",
      "type": "function"
    },
    {
      "inputs": [
        {
          "internalType": "uint256",
          "name": "collectionId",
          "type": "uint256"
        }
      ],
      "name": "buy",
      "outputs": [],
      "stateMutability": "payable",
      "type": "function"
    },
    {
      "inputs": [
        {
          "internalType": "uint256",
          "name": "collectionId",
          "type": "uint256"
        },
        {
          "internalType": "address",
          "name": "recipient",
          "type": "address"
        }
      ],
      "name": "buyFor",
      "outputs": [],
      "stateMutability": "payable",
      "type": "function"
    },
    {
      "inputs": [
        {
          "internalType": "uint256",
          "name": "collectionId",
          "type": "uint256"
        }
      ],
      "name": "collectionBaseURI",
      "outputs": [
        {
          "internalType": "string",
          "name": "",
          "type": "string"
        }
      ],
      "stateMutability": "view",
      "type": "function"
    },
    {
      "inputs": [
        {
          "internalType": "uint256",
          "name": "collectionId",
          "type": "uint256"
        }
      ],
      "name": "collectionFilled",
      "outputs": [
        {
          "internalType": "bool",
          "name": "",
          "type": "bool"
        }
      ],
      "stateMutability": "view",
      "type": "function"
    },
    {
      "inputs": [
        {
          "internalType": "uint256",
          "name": "collectionId",
          "type": "uint256"
        }
      ],
      "name": "collectionFixedURI",
      "outputs": [
        {
          "internalType": "string",
          "name": "",
          "type": "string"
        }
      ],
      "stateMutability": "view",
      "type": "function"
    },
    {
      "inputs": [
        {
          "internalType": "uint256",
          "name": "tokenId",
          "type": "uint256"
        }
      ],
      "name": "collectionOf",
      "outputs": [
        {
          "internalType": "uint256",
          "name": "",
          "type": "uint256"
        }
      ],
      "stateMutability": "view",
      "type": "function"
    },
    {
      "inputs": [
        {
          "internalType": "uint256",
          "name": "collectionId",
          "type": "uint256"
        }
      ],
      "name": "collectionOffer",
      "outputs": [
        {
          "internalType": "uint256",
          "name": "",
          "type": "uint256"
        }
      ],
      "stateMutability": "view",
      "type": "function"
    },
    {
      "inputs": [
        {
          "internalType": "uint256",
          "name": "collectionId",
          "type": "uint256"
        }
      ],
      "name": "collectionSize",
      "outputs": [
        {
          "internalType": "uint256",
          "name": "",
          "type": "uint256"
        }
      ],
      "stateMutability": "view",
      "type": "function"
    },
    {
      "inputs": [
        {
          "internalType": "uint256",
          "name": "collectionId",
          "type": "uint256"
        }
      ],
      "name": "collectionSupply",
      "outputs": [
        {
          "internalType": "uint256",
          "name": "",
          "type": "uint256"
        }
      ],
      "stateMutability": "view",
      "type": "function"
    },
    {
      "inputs": [],
      "name": "contractURI",
      "outputs": [
        {
          "internalType": "string",
          "name": "",
          "type": "string"
        }
      ],
      "stateMutability": "view",
      "type": "function"
    },
    {
      "inputs": [
        {
          "internalType": "uint256",
          "name": "collectionId",
          "type": "uint256"
        },
        {
          "internalType": "uint256",
          "name": "size",
          "type": "uint256"
        }
      ],
      "name": "fixCollectionSize",
      "outputs": [],
      "stateMutability": "nonpayable",
      "type": "function"
    },
    {
      "inputs": [
        {
          "internalType": "uint256",
          "name": "tokenId",
          "type": "uint256"
        }
      ],
      "name": "getApproved",
      "outputs": [
        {
          "internalType": "address",
          "name": "",
          "type": "address"
        }
      ],
      "stateMutability": "view",
      "type": "function"
    },
    {
      "inputs": [
        {
          "internalType": "bytes32",
          "name": "role",
          "type": "bytes32"
        }
      ],
      "name": "getRoleAdmin",
      "outputs": [
        {
          "internalType": "bytes32",
          "name": "",
          "type": "bytes32"
        }
      ],
      "stateMutability": "view",
      "type": "function"
    },
    {
      "inputs": [
        {
          "internalType": "bytes32",
          "name": "role",
          "type": "bytes32"
        },
        {
          "internalType": "uint256",
          "name": "index",
          "type": "uint256"
        }
      ],
      "name": "getRoleMember",
      "outputs": [
        {
          "internalType": "address",
          "name": "",
          "type": "address"
        }
      ],
      "stateMutability": "view",
      "type": "function"
    },
    {
      "inputs": [
        {
          "internalType": "bytes32",
          "name": "role",
          "type": "bytes32"
        }
      ],
      "name": "getRoleMemberCount",
      "outputs": [
        {
          "internalType": "uint256",
          "name": "",
          "type": "uint256"
        }
      ],
      "stateMutability": "view",
      "type": "function"
    },
    {
      "inputs": [
        {
          "internalType": "bytes32",
          "name": "role",
          "type": "bytes32"
        },
        {
          "internalType": "address",
          "name": "account",
          "type": "address"
        }
      ],
      "name": "grantRole",
      "outputs": [],
      "stateMutability": "nonpayable",
      "type": "function"
    },
    {
      "inputs": [
        {
          "internalType": "bytes32",
          "name": "role",
          "type": "bytes32"
        },
        {
          "internalType": "address",
          "name": "account",
          "type": "address"
        }
      ],
      "name": "hasRole",
      "outputs": [
        {
          "internalType": "bool",
          "name": "",
          "type": "bool"
        }
      ],
      "stateMutability": "view",
      "type": "function"
    },
    {
      "inputs": [
        {
          "internalType": "address",
          "name": "owner",
          "type": "address"
        },
        {
          "internalType": "address",
          "name": "operator",
          "type": "address"
        }
      ],
      "name": "isApprovedForAll",
      "outputs": [
        {
          "internalType": "bool",
          "name": "",
          "type": "bool"
        }
      ],
      "stateMutability": "view",
      "type": "function"
    },
    {
      "inputs": [],
      "name": "lastId",
      "outputs": [
        {
          "internalType": "uint256",
          "name": "",
          "type": "uint256"
        }
      ],
      "stateMutability": "view",
      "type": "function"
    },
    {
      "inputs": [
        {
          "internalType": "uint256",
          "name": "collectionId",
          "type": "uint256"
        },
        {
          "internalType": "uint256",
          "name": "size",
          "type": "uint256"
        },
        {
          "internalType": "uint256",
          "name": "offer",
          "type": "uint256"
        },
        {
          "internalType": "string",
          "name": "uri",
          "type": "string"
        },
        {
          "internalType": "bool",
          "name": "fixedURI",
          "type": "bool"
        }
      ],
      "name": "makeCollection",
      "outputs": [],
      "stateMutability": "nonpayable",
      "type": "function"
    },
    {
      "inputs": [
        {
          "internalType": "uint256",
          "name": "collectionId",
          "type": "uint256"
        },
        {
          "internalType": "uint256",
          "name": "offer",
          "type": "uint256"
        }
      ],
      "name": "makeCollectionOffer",
      "outputs": [],
      "stateMutability": "nonpayable",
      "type": "function"
    },
    {
      "inputs": [
        {
          "internalType": "uint256",
          "name": "collectionId",
          "type": "uint256"
        },
        {
          "internalType": "address",
          "name": "recipient",
          "type": "address"
        }
      ],
      "name": "mint",
      "outputs": [],
      "stateMutability": "nonpayable",
      "type": "function"
    },
    {
      "inputs": [],
      "name": "name",
      "outputs": [
        {
          "internalType": "string",
          "name": "",
          "type": "string"
        }
      ],
      "stateMutability": "view",
      "type": "function"
    },
    {
      "inputs": [
        {
          "internalType": "uint256",
          "name": "tokenId",
          "type": "uint256"
        }
      ],
      "name": "ownerOf",
      "outputs": [
        {
          "internalType": "address",
          "name": "",
          "type": "address"
        }
      ],
      "stateMutability": "view",
      "type": "function"
    },
    {
      "inputs": [],
      "name": "pause",
      "outputs": [],
      "stateMutability": "nonpayable",
      "type": "function"
    },
    {
      "inputs": [],
      "name": "paused",
      "outputs": [
        {
          "internalType": "bool",
          "name": "",
          "type": "bool"
        }
      ],
      "stateMutability": "view",
      "type": "function"
    },
    {
      "inputs": [
        {
          "internalType": "bytes32",
          "name": "role",
          "type": "bytes32"
        },
        {
          "internalType": "address",
          "name": "account",
          "type": "address"
        }
      ],
      "name": "renounceRole",
      "outputs": [],
      "stateMutability": "nonpayable",
      "type": "function"
    },
    {
      "inputs": [
        {
          "internalType": "bytes32",
          "name": "role",
          "type": "bytes32"
        },
        {
          "internalType": "address",
          "name": "account",
          "type": "address"
        }
      ],
      "name": "revokeRole",
      "outputs": [],
      "stateMutability": "nonpayable",
      "type": "function"
    },
    {
      "inputs": [
        {
          "internalType": "address",
          "name": "from",
          "type": "address"
        },
        {
          "internalType": "address",
          "name": "to",
          "type": "address"
        },
        {
          "internalType": "uint256",
          "name": "tokenId",
          "type": "uint256"
        }
      ],
      "name": "safeTransferFrom",
      "outputs": [],
      "stateMutability": "nonpayable",
      "type": "function"
    },
    {
      "inputs": [
        {
          "internalType": "address",
          "name": "from",
          "type": "address"
        },
        {
          "internalType": "address",
          "name": "to",
          "type": "address"
        },
        {
          "internalType": "uint256",
          "name": "tokenId",
          "type": "uint256"
        },
        {
          "internalType": "bytes",
          "name": "_data",
          "type": "bytes"
        }
      ],
      "name": "safeTransferFrom",
      "outputs": [],
      "stateMutability": "nonpayable",
      "type": "function"
    },
    {
      "inputs": [
        {
          "internalType": "address",
          "name": "operator",
          "type": "address"
        },
        {
          "internalType": "bool",
          "name": "approved",
          "type": "bool"
        }
      ],
      "name": "setApprovalForAll",
      "outputs": [],
      "stateMutability": "nonpayable",
      "type": "function"
    },
    {
      "inputs": [
        {
          "internalType": "uint256",
          "name": "collectionId",
          "type": "uint256"
        },
        {
          "internalType": "string",
          "name": "uri",
          "type": "string"
        }
      ],
      "name": "setCollectionBaseURI",
      "outputs": [],
      "stateMutability": "nonpayable",
      "type": "function"
    },
    {
      "inputs": [
        {
          "internalType": "uint256",
          "name": "collectionId",
          "type": "uint256"
        },
        {
          "internalType": "string",
          "name": "uri",
          "type": "string"
        }
      ],
      "name": "setCollectionFixedURI",
      "outputs": [],
      "stateMutability": "nonpayable",
      "type": "function"
    },
    {
      "inputs": [
        {
          "internalType": "bytes4",
          "name": "interfaceId",
          "type": "bytes4"
        }
      ],
      "name": "supportsInterface",
      "outputs": [
        {
          "internalType": "bool",
          "name": "",
          "type": "bool"
        }
      ],
      "stateMutability": "view",
      "type": "function"
    },
    {
      "inputs": [],
      "name": "symbol",
      "outputs": [
        {
          "internalType": "string",
          "name": "",
          "type": "string"
        }
      ],
      "stateMutability": "view",
      "type": "function"
    },
    {
      "inputs": [
        {
          "internalType": "uint256",
          "name": "index",
          "type": "uint256"
        }
      ],
      "name": "tokenByIndex",
      "outputs": [
        {
          "internalType": "uint256",
          "name": "",
          "type": "uint256"
        }
      ],
      "stateMutability": "view",
      "type": "function"
    },
    {
      "inputs": [
        {
          "internalType": "address",
          "name": "owner",
          "type": "address"
        },
        {
          "internalType": "uint256",
          "name": "index",
          "type": "uint256"
        }
      ],
      "name": "tokenOfOwnerByIndex",
      "outputs": [
        {
          "internalType": "uint256",
          "name": "",
          "type": "uint256"
        }
      ],
      "stateMutability": "view",
      "type": "function"
    },
    {
      "inputs": [
        {
          "internalType": "uint256",
          "name": "tokenId",
          "type": "uint256"
        }
      ],
      "name": "tokenURI",
      "outputs": [
        {
          "internalType": "string",
          "name": "",
          "type": "string"
        }
      ],
      "stateMutability": "view",
      "type": "function"
    },
    {
      "inputs": [],
      "name": "totalSupply",
      "outputs": [
        {
          "internalType": "uint256",
          "name": "",
          "type": "uint256"
        }
      ],
      "stateMutability": "view",
      "type": "function"
    },
    {
      "inputs": [
        {
          "internalType": "address",
          "name": "from",
          "type": "address"
        },
        {
          "internalType": "address",
          "name": "to",
          "type": "address"
        },
        {
          "internalType": "uint256",
          "name": "tokenId",
          "type": "uint256"
        }
      ],
      "name": "transferFrom",
      "outputs": [],
      "stateMutability": "nonpayable",
      "type": "function"
    },
    {
      "inputs": [],
      "name": "unpause",
      "outputs": [],
      "stateMutability": "nonpayable",
      "type": "function"
    },
    {
      "inputs": [],
      "name": "withdraw",
      "outputs": [],
      "stateMutability": "nonpayable",
      "type": "function"
    }
  ],
  "bytecode": "0x60806040526000600d553480156200001657600080fd5b5060405162003d7938038062003d7983398101604081905262000039916200038f565b604080518082018252600c81526b131a5b185b9b9848149bdb1b60a21b6020808301918252835180850190945260038452624c524360e81b908401528151919291839183916200008c91600291620002d3565b508051620000a2906003906020840190620002d3565b5050600c805460ff1916905550620000bc60003362000159565b620000e87f65d7a28e3265b37a6474929f336521b332c1681b933f6cb9f3376673440d862a3362000159565b620001147f9f2df0fed2c77648de5860a4cc508cd0818c85b8b8a1ab4ceeef8d981c8956a63362000159565b620001407f850d585eb7f024ccee5e68e55f2c26cc72e1e6ee456acf62135757a5eb9d4a103362000159565b50506001601855620001528162000169565b50620004a8565b6200016582826200017e565b5050565b80516200016590600f906020840190620002d3565b620001958282620001c160201b620016951760201c565b6000828152600160209081526040909120620001bc9183906200171962000261821b17901c565b505050565b6000828152602081815260408083206001600160a01b038516845290915290205460ff1662000165576000828152602081815260408083206001600160a01b03851684529091529020805460ff191660011790556200021d3390565b6001600160a01b0316816001600160a01b0316837f2f8788117e7eff1d82e926ec794901d17c78024a50270940304540a733656f0d60405160405180910390a45050565b600062000278836001600160a01b03841662000281565b90505b92915050565b6000818152600183016020526040812054620002ca575081546001818101845560008481526020808220909301849055845484825282860190935260409020919091556200027b565b5060006200027b565b828054620002e1906200046b565b90600052602060002090601f01602090048101928262000305576000855562000350565b82601f106200032057805160ff191683800117855562000350565b8280016001018555821562000350579182015b828111156200035057825182559160200191906001019062000333565b506200035e92915062000362565b5090565b5b808211156200035e576000815560010162000363565b634e487b7160e01b600052604160045260246000fd5b60006020808385031215620003a357600080fd5b82516001600160401b0380821115620003bb57600080fd5b818501915085601f830112620003d057600080fd5b815181811115620003e557620003e562000379565b604051601f8201601f19908116603f0116810190838211818310171562000410576200041062000379565b8160405282815288868487010111156200042957600080fd5b600093505b828410156200044d57848401860151818501870152928501926200042e565b828411156200045f5760008684830101525b98975050505050505050565b600181811c908216806200048057607f821691505b60208210811415620004a257634e487b7160e01b600052602260045260246000fd5b50919050565b6138c180620004b86000396000f3fe6080604052600436106102ff5760003560e01c80637a2fdbde11610190578063c1292cc3116100dc578063d547cfb711610095578063e63ab1e91161006f578063e63ab1e914610916578063e8a3d4851461094a578063e8f6cc021461095f578063e985e9c51461097f57600080fd5b8063d547cfb7146108c1578063d96a094a146108d6578063ddb19d61146108e957600080fd5b8063c1292cc3146107f8578063c7778baa1461080d578063c87b56dd1461082d578063ca15c8731461084d578063d53913931461086d578063d547741f146108a157600080fd5b806394bf804d11610149578063a22cb46511610123578063a22cb46514610785578063a3a8573a146107a5578063b88d4fde146107b8578063c009673f146107d857600080fd5b806394bf804d1461073b57806395d89b411461075b578063a217fddf1461077057600080fd5b80637a2fdbde146106795780637d8250f6146106a65780638456cb59146106c6578063876a9ce7146106db5780639010d07c146106fb57806391d148541461071b57600080fd5b80633ccfd60b1161024f5780635135f57a116102085780635c975abb116101e25780635c975abb146106015780636352211e1461061957806370a0823114610639578063765008021461065957600080fd5b80635135f57a146105a157806356e5f50a146105c1578063576c1a10146105e157600080fd5b80633ccfd60b146104f55780633f4ba83a1461050a57806342842e0e1461051f57806342966c681461053f5780634a2cfb541461055f5780634f6ccce71461058157600080fd5b80631ae21c74116102bc57806328ccf5641161029657806328ccf564146104755780632f2ff15d146104955780632f745c59146104b557806336568abe146104d557600080fd5b80631ae21c74146103f857806323b872dd14610425578063248a9ca31461044557600080fd5b806301ffc9a71461030457806306fdde0314610339578063081812fc1461035b578063095ea7b31461039357806309763e8e146103b557806318160ddd146103d5575b600080fd5b34801561031057600080fd5b5061032461031f366004613074565b6109c8565b60405190151581526020015b60405180910390f35b34801561034557600080fd5b5061034e6109d9565b60405161033091906130e9565b34801561036757600080fd5b5061037b6103763660046130fc565b6109e8565b6040516001600160a01b039091168152602001610330565b34801561039f57600080fd5b506103b36103ae366004613131565b610a75565b005b3480156103c157600080fd5b506103b36103d036600461315b565b610b8b565b3480156103e157600080fd5b506103ea610bae565b604051908152602001610330565b34801561040457600080fd5b506103ea6104133660046130fc565b60009081526013602052604090205490565b34801561043157600080fd5b506103b361044036600461317d565b610bb9565b34801561045157600080fd5b506103ea6104603660046130fc565b60009081526020819052604090206001015490565b34801561048157600080fd5b506103b361049036600461325c565b610beb565b3480156104a157600080fd5b506103b36104b03660046132a3565b610c0e565b3480156104c157600080fd5b506103ea6104d0366004613131565b610c34565b3480156104e157600080fd5b506103b36104f03660046132a3565b610cca565b34801561050157600080fd5b506103b3610d48565b34801561051657600080fd5b506103b3610d83565b34801561052b57600080fd5b506103b361053a36600461317d565b610db9565b34801561054b57600080fd5b506103b361055a3660046130fc565b610dd4565b34801561056b57600080fd5b506103ea60008051602061386c83398151915281565b34801561058d57600080fd5b506103ea61059c3660046130fc565b610e4b565b3480156105ad57600080fd5b5061034e6105bc3660046130fc565b610ede565b3480156105cd57600080fd5b506103b36105dc3660046132df565b610f80565b3480156105ed57600080fd5b506103246105fc3660046130fc565b610fe7565b34801561060d57600080fd5b50600c5460ff16610324565b34801561062557600080fd5b5061037b6106343660046130fc565b61101f565b34801561064557600080fd5b506103ea61065436600461334a565b611096565b34801561066557600080fd5b506103b361067436600461325c565b61111d565b34801561068557600080fd5b506103ea6106943660046130fc565b60009081526017602052604090205490565b3480156106b257600080fd5b506103b36106c136600461315b565b611140565b3480156106d257600080fd5b506103b361116c565b3480156106e757600080fd5b5061034e6106f63660046130fc565b61119f565b34801561070757600080fd5b5061037b61071636600461315b565b6111bc565b34801561072757600080fd5b506103246107363660046132a3565b6111db565b34801561074757600080fd5b506103b36107563660046132a3565b611204565b34801561076757600080fd5b5061034e61126f565b34801561077c57600080fd5b506103ea600081565b34801561079157600080fd5b506103b36107a0366004613365565b611279565b6103b36107b33660046132a3565b611284565b3480156107c457600080fd5b506103b36107d336600461338f565b611383565b3480156107e457600080fd5b506103b36107f336600461325c565b6113bb565b34801561080457600080fd5b506103ea6113c6565b34801561081957600080fd5b506103ea6108283660046130fc565b6113d1565b34801561083957600080fd5b5061034e6108483660046130fc565b61140b565b34801561085957600080fd5b506103ea6108683660046130fc565b611416565b34801561087957600080fd5b506103ea7f9f2df0fed2c77648de5860a4cc508cd0818c85b8b8a1ab4ceeef8d981c8956a681565b3480156108ad57600080fd5b506103b36108bc3660046132a3565b61142d565b3480156108cd57600080fd5b5061034e611453565b6103b36108e43660046130fc565b6114e5565b3480156108f557600080fd5b506103ea6109043660046130fc565b60009081526014602052604090205490565b34801561092257600080fd5b506103ea7f65d7a28e3265b37a6474929f336521b332c1681b933f6cb9f3376673440d862a81565b34801561095657600080fd5b5061034e6114ef565b34801561096b57600080fd5b506103b361097a3660046133f7565b6114fe565b34801561098b57600080fd5b5061032461099a36600461344e565b6001600160a01b03918216600090815260076020908152604080832093909416825291909152205460ff1690565b60006109d38261172e565b92915050565b60606109e3611753565b905090565b60006109f382611762565b610a595760405162461bcd60e51b815260206004820152602c60248201527f4552433732313a20617070726f76656420717565727920666f72206e6f6e657860448201526b34b9ba32b73a103a37b5b2b760a11b60648201526084015b60405180910390fd5b506000908152600660205260409020546001600160a01b031690565b6000610a808261101f565b9050806001600160a01b0316836001600160a01b03161415610aee5760405162461bcd60e51b815260206004820152602160248201527f4552433732313a20617070726f76616c20746f2063757272656e74206f776e656044820152603960f91b6064820152608401610a50565b336001600160a01b0382161480610b0a5750610b0a813361099a565b610b7c5760405162461bcd60e51b815260206004820152603860248201527f4552433732313a20617070726f76652063616c6c6572206973206e6f74206f7760448201527f6e6572206e6f7220617070726f76656420666f7220616c6c00000000000000006064820152608401610a50565b610b868383611781565b505050565b60008051602061386c833981519152610ba481336117ef565b610b868383611853565b60006109e3600d5490565b610bc4335b826118c1565b610be05760405162461bcd60e51b8152600401610a5090613478565b610b868383836119ab565b60008051602061386c833981519152610c0481336117ef565b610b868383611b56565b600082815260208190526040902060010154610c2a81336117ef565b610b868383611b75565b6000610c3f83611096565b8210610ca15760405162461bcd60e51b815260206004820152602b60248201527f455243373231456e756d657261626c653a206f776e657220696e646578206f7560448201526a74206f6620626f756e647360a81b6064820152608401610a50565b506001600160a01b03919091166000908152600860209081526040808320938352929052205490565b6001600160a01b0381163314610d3a5760405162461bcd60e51b815260206004820152602f60248201527f416363657373436f6e74726f6c3a2063616e206f6e6c792072656e6f756e636560448201526e103937b632b9903337b91039b2b63360891b6064820152608401610a50565b610d448282611b97565b5050565b6000610d5481336117ef565b6040514790339082156108fc029083906000818181858888f19350505050158015610b86573d6000803e3d6000fd5b7f65d7a28e3265b37a6474929f336521b332c1681b933f6cb9f3376673440d862a610dae81336117ef565b610db6611bb9565b50565b610b8683838360405180602001604052806000815250611383565b610ddd33610bbe565b610e425760405162461bcd60e51b815260206004820152603060248201527f4552433732314275726e61626c653a2063616c6c6572206973206e6f74206f7760448201526f1b995c881b9bdc88185c1c1c9bdd995960821b6064820152608401610a50565b610db681611c4c565b6000610e56600a5490565b8210610eb95760405162461bcd60e51b815260206004820152602c60248201527f455243373231456e756d657261626c653a20676c6f62616c20696e646578206f60448201526b7574206f6620626f756e647360a01b6064820152608401610a50565b600a8281548110610ecc57610ecc6134c9565b90600052602060002001549050919050565b6000818152601660205260409020805460609190610efb906134df565b80601f0160208091040260200160405190810160405280929190818152602001828054610f27906134df565b8015610f745780601f10610f4957610100808354040283529160200191610f74565b820191906000526020600020905b815481529060010190602001808311610f5757829003601f168201915b50505050509050919050565b60008051602061386c833981519152610f9981336117ef565b8415610fa957610fa98686610b8b565b8315610fb957610fb98685611140565b825115610fdf578115610fd557610fd08684610beb565b610fdf565b610fdf868461111d565b505050505050565b600081815260146020526040812054158015906109d35750506000908152601460209081526040808320546013909252909120541490565b6000818152600460205260408120546001600160a01b0316806109d35760405162461bcd60e51b815260206004820152602960248201527f4552433732313a206f776e657220717565727920666f72206e6f6e657869737460448201526832b73a103a37b5b2b760b91b6064820152608401610a50565b60006001600160a01b0382166111015760405162461bcd60e51b815260206004820152602a60248201527f4552433732313a2062616c616e636520717565727920666f7220746865207a65604482015269726f206164647265737360b01b6064820152608401610a50565b506001600160a01b031660009081526005602052604090205490565b60008051602061386c83398151915261113681336117ef565b610b868383611cf3565b60008051602061386c83398151915261115981336117ef565b5060009182526017602052604090912055565b7f65d7a28e3265b37a6474929f336521b332c1681b933f6cb9f3376673440d862a61119781336117ef565b610db6611d12565b6000818152601560205260409020805460609190610efb906134df565b60008281526001602052604081206111d49083611d8d565b9392505050565b6000918252602082815260408084206001600160a01b0393909316845291905290205460ff1690565b7f9f2df0fed2c77648de5860a4cc508cd0818c85b8b8a1ab4ceeef8d981c8956a661122f81336117ef565b61123883610fe7565b156112555760405162461bcd60e51b8152600401610a509061351a565b61125e82611d99565b610b866112696113c6565b84611dc2565b60606109e3611ee4565b610d44338383611ef3565b600260185414156112d75760405162461bcd60e51b815260206004820152601f60248201527f5265656e7472616e637947756172643a207265656e7472616e742063616c6c006044820152606401610a50565b60026018556112e582610fe7565b156113025760405162461bcd60e51b8152600401610a509061351a565b6000828152601760205260409020543410156113605760405162461bcd60e51b815260206004820152601a60248201527f416d6f756e742073656e74206973206e6f7420636f72726563740000000000006044820152606401610a50565b61136981611d99565b61137a6113746113c6565b83611dc2565b50506001601855565b61138d33836118c1565b6113a95760405162461bcd60e51b8152600401610a5090613478565b6113b584848484611fc2565b50505050565b610d448233836114fe565b60006109e360105490565b60006113dc82611762565b6113f85760405162461bcd60e51b8152600401610a5090613545565b5060009081526011602052604090205490565b60606109d382611ff5565b60008181526001602052604081206109d3906121be565b60008281526020819052604090206001015461144981336117ef565b610b868383611b97565b6060600e8054611462906134df565b80601f016020809104026020016040519081016040528092919081815260200182805461148e906134df565b80156114db5780601f106114b0576101008083540402835291602001916114db565b820191906000526020600020905b8154815290600101906020018083116114be57829003601f168201915b5050505050905090565b610db68133611284565b6060600f8054611462906134df565b600260185414156115515760405162461bcd60e51b815260206004820152601f60248201527f5265656e7472616e637947756172643a207265656e7472616e742063616c6c006044820152606401610a50565b600260185561155f83610fe7565b1561157c5760405162461bcd60e51b8152600401610a509061351a565b61163a7f9f2df0fed2c77648de5860a4cc508cd0818c85b8b8a1ab4ceeef8d981c8956a661073661163486866040516020016115d492919091825260601b6bffffffffffffffffffffffff1916602082015260340190565b60408051601f1981840301815282825280516020918201207f19457468657265756d205369676e6564204d6573736167653a0a33320000000084830152603c8085019190915282518085039091018152605c909301909152815191012090565b846121c8565b6116775760405162461bcd60e51b815260206004820152600e60248201526d24b73b30b634b210383937b7b31760911b6044820152606401610a50565b61168082611d99565b61168b6112696113c6565b5050600160185550565b61169f82826111db565b610d44576000828152602081815260408083206001600160a01b03851684529091529020805460ff191660011790556116d53390565b6001600160a01b0316816001600160a01b0316837f2f8788117e7eff1d82e926ec794901d17c78024a50270940304540a733656f0d60405160405180910390a45050565b60006111d4836001600160a01b0384166121ec565b60006001600160e01b0319821663780e9d6360e01b14806109d357506109d38261223b565b606060028054611462906134df565b6000818152600460205260408120546001600160a01b031615156109d3565b600081815260066020526040902080546001600160a01b0319166001600160a01b03841690811790915581906117b68261101f565b6001600160a01b03167f8c5be1e5ebec7d5bd14f71427d1e84f3dd0314c0f7b2291e5b200ac8c7c3b92560405160405180910390a45050565b6117f982826111db565b610d4457611811816001600160a01b0316601461227b565b61181c83602061227b565b60405160200161182d92919061358f565b60408051601f198184030181529082905262461bcd60e51b8252610a50916004016130e9565b600082815260146020526040902054156118af5760405162461bcd60e51b815260206004820152601b60248201527f436f6c6c656374696f6e20697320616c72656164792073697a656400000000006044820152606401610a50565b60009182526014602052604090912055565b60006118cc82611762565b61192d5760405162461bcd60e51b815260206004820152602c60248201527f4552433732313a206f70657261746f7220717565727920666f72206e6f6e657860448201526b34b9ba32b73a103a37b5b2b760a11b6064820152608401610a50565b60006119388361101f565b9050806001600160a01b0316846001600160a01b031614806119735750836001600160a01b0316611968846109e8565b6001600160a01b0316145b806119a357506001600160a01b0380821660009081526007602090815260408083209388168352929052205460ff165b949350505050565b826001600160a01b03166119be8261101f565b6001600160a01b031614611a265760405162461bcd60e51b815260206004820152602960248201527f4552433732313a207472616e73666572206f6620746f6b656e2074686174206960448201526839903737ba1037bbb760b91b6064820152608401610a50565b6001600160a01b038216611a885760405162461bcd60e51b8152602060048201526024808201527f4552433732313a207472616e7366657220746f20746865207a65726f206164646044820152637265737360e01b6064820152608401610a50565b611a93838383612417565b611a9e600082611781565b6001600160a01b0383166000908152600560205260408120805460019290611ac790849061361a565b90915550506001600160a01b0382166000908152600560205260408120805460019290611af5908490613631565b909155505060008181526004602052604080822080546001600160a01b0319166001600160a01b0386811691821790925591518493918716917fddf252ad1be2c89b69c2b068fc378daa952ba7f163c4a11628f55a4df523b3ef91a4505050565b60008281526016602090815260409091208251610b8692840190612fc5565b611b7f8282611695565b6000828152600160205260409020610b869082611719565b611ba18282612422565b6000828152600160205260409020610b869082612487565b600c5460ff16611c025760405162461bcd60e51b815260206004820152601460248201527314185d5cd8589b194e881b9bdd081c185d5cd95960621b6044820152606401610a50565b600c805460ff191690557f5db9ee0a495bf2e6ff9c91a7834c1ba4fdd244a5e8aa4e537bd38aeae4b073aa335b6040516001600160a01b03909116815260200160405180910390a1565b6000611c578261101f565b9050611c6581600084612417565b611c70600083611781565b6001600160a01b0381166000908152600560205260408120805460019290611c9990849061361a565b909155505060008281526004602052604080822080546001600160a01b0319169055518391906001600160a01b038416907fddf252ad1be2c89b69c2b068fc378daa952ba7f163c4a11628f55a4df523b3ef908390a45050565b60008281526015602090815260409091208251610b8692840190612fc5565b600c5460ff1615611d585760405162461bcd60e51b815260206004820152601060248201526f14185d5cd8589b194e881c185d5cd95960821b6044820152606401610a50565b600c805460ff191660011790557f62e78cea01bee320cd4e420270b5ea74000d11b0c9f74754ebdbfc544b05a258611c2f3390565b60006111d4838361249c565b611da7601080546001019055565b611db881611db36113c6565b6124c6565b610db660016124e0565b611dcb82611762565b611de75760405162461bcd60e51b8152600401610a5090613545565b60008281526011602052604090205415611e435760405162461bcd60e51b815260206004820152601860248201527f546f6b656e20697320616c72656164792067726f7570656400000000000000006044820152606401610a50565b611e4c81610fe7565b15611e995760405162461bcd60e51b815260206004820152601860248201527f436f6c6c656374696f6e2073697a6520657863656564656400000000000000006044820152606401610a50565b60008281526011602090815260408083208490558383526013808352818420805487865260128552928520839055858552925260019290611edb908490613631565b90915550505050565b606060038054611462906134df565b816001600160a01b0316836001600160a01b03161415611f555760405162461bcd60e51b815260206004820152601960248201527f4552433732313a20617070726f766520746f2063616c6c6572000000000000006044820152606401610a50565b6001600160a01b03838116600081815260076020908152604080832094871680845294825291829020805460ff191686151590811790915591519182527f17307eab39ab6107e8899845ad3d59bd9653f200f220920489ca2b5937696c31910160405180910390a3505050565b611fcd8484846119ab565b611fd9848484846124fa565b6113b55760405162461bcd60e51b8152600401610a5090613649565b606061200082611762565b61201c5760405162461bcd60e51b8152600401610a5090613545565b6000612027836113d1565b9050600081116120795760405162461bcd60e51b815260206004820181905260248201527f546f6b656e20646f6573206e6f742068617665206120636f6c6c656374696f6e6044820152606401610a50565b60008181526016602052604081208054612092906134df565b9050111561213957600081815260166020526040902080546120b3906134df565b80601f01602080910402602001604051908101604052809291908181526020018280546120df906134df565b801561212c5780601f106121015761010080835404028352916020019161212c565b820191906000526020600020905b81548152906001019060200180831161210f57829003601f168201915b5050505050915050919050565b60008181526015602052604081208054612152906134df565b905011156121a857600081815260156020908152604080832086845260129092529091205461218090612607565b60405160200161219192919061369b565b604051602081830303815290604052915050919050565b5050604080516020810190915260008152919050565b60006109d3825490565b60008060006121d78585612705565b915091506121e481612775565b509392505050565b6000818152600183016020526040812054612233575081546001818101845560008481526020808220909301849055845484825282860190935260409020919091556109d3565b5060006109d3565b60006001600160e01b031982166380ac58cd60e01b148061226c57506001600160e01b03198216635b5e139f60e01b145b806109d357506109d382612930565b6060600061228a836002613756565b612295906002613631565b67ffffffffffffffff8111156122ad576122ad6131b9565b6040519080825280601f01601f1916602001820160405280156122d7576020820181803683370190505b509050600360fc1b816000815181106122f2576122f26134c9565b60200101906001600160f81b031916908160001a905350600f60fb1b81600181518110612321576123216134c9565b60200101906001600160f81b031916908160001a9053506000612345846002613756565b612350906001613631565b90505b60018111156123c8576f181899199a1a9b1b9c1cb0b131b232b360811b85600f1660108110612384576123846134c9565b1a60f81b82828151811061239a5761239a6134c9565b60200101906001600160f81b031916908160001a90535060049490941c936123c181613775565b9050612353565b5083156111d45760405162461bcd60e51b815260206004820181905260248201527f537472696e67733a20686578206c656e67746820696e73756666696369656e746044820152606401610a50565b610b86838383612955565b61242c82826111db565b15610d44576000828152602081815260408083206001600160a01b0385168085529252808320805460ff1916905551339285917ff6391f5c32d9c69d2a47ea670b442974b53935d1edc7fd64eb21e047a839171b9190a45050565b60006111d4836001600160a01b0384166129c7565b60008260000182815481106124b3576124b36134c9565b9060005260206000200154905092915050565b610d44828260405180602001604052806000815250612aba565b80600d60008282546124f29190613631565b909155505050565b60006001600160a01b0384163b156125fc57604051630a85bd0160e11b81526001600160a01b0385169063150b7a029061253e90339089908890889060040161378c565b602060405180830381600087803b15801561255857600080fd5b505af1925050508015612588575060408051601f3d908101601f19168201909252612585918101906137c9565b60015b6125e2573d8080156125b6576040519150601f19603f3d011682016040523d82523d6000602084013e6125bb565b606091505b5080516125da5760405162461bcd60e51b8152600401610a5090613649565b805181602001fd5b6001600160e01b031916630a85bd0160e11b1490506119a3565b506001949350505050565b60608161262b5750506040805180820190915260018152600360fc1b602082015290565b8160005b8115612655578061263f816137e6565b915061264e9050600a83613817565b915061262f565b60008167ffffffffffffffff811115612670576126706131b9565b6040519080825280601f01601f19166020018201604052801561269a576020820181803683370190505b5090505b84156119a3576126af60018361361a565b91506126bc600a8661382b565b6126c7906030613631565b60f81b8183815181106126dc576126dc6134c9565b60200101906001600160f81b031916908160001a9053506126fe600a86613817565b945061269e565b60008082516041141561273c5760208301516040840151606085015160001a61273087828585612aed565b9450945050505061276e565b825160401415612766576020830151604084015161275b868383612bda565b93509350505061276e565b506000905060025b9250929050565b60008160048111156127895761278961383f565b14156127925750565b60018160048111156127a6576127a661383f565b14156127f45760405162461bcd60e51b815260206004820152601860248201527f45434453413a20696e76616c6964207369676e617475726500000000000000006044820152606401610a50565b60028160048111156128085761280861383f565b14156128565760405162461bcd60e51b815260206004820152601f60248201527f45434453413a20696e76616c6964207369676e6174757265206c656e677468006044820152606401610a50565b600381600481111561286a5761286a61383f565b14156128c35760405162461bcd60e51b815260206004820152602260248201527f45434453413a20696e76616c6964207369676e6174757265202773272076616c604482015261756560f01b6064820152608401610a50565b60048160048111156128d7576128d761383f565b1415610db65760405162461bcd60e51b815260206004820152602260248201527f45434453413a20696e76616c6964207369676e6174757265202776272076616c604482015261756560f01b6064820152608401610a50565b60006001600160e01b03198216635a05180f60e01b14806109d357506109d382612c09565b612960838383612c3e565b600c5460ff1615610b865760405162461bcd60e51b815260206004820152602b60248201527f4552433732315061757361626c653a20746f6b656e207472616e73666572207760448201526a1a1a5b19481c185d5cd95960aa1b6064820152608401610a50565b60008181526001830160205260408120548015612ab05760006129eb60018361361a565b85549091506000906129ff9060019061361a565b9050818114612a64576000866000018281548110612a1f57612a1f6134c9565b9060005260206000200154905080876000018481548110612a4257612a426134c9565b6000918252602080832090910192909255918252600188019052604090208390555b8554869080612a7557612a75613855565b6001900381819060005260206000200160009055905585600101600086815260200190815260200160002060009055600193505050506109d3565b60009150506109d3565b612ac48383612cf6565b612ad160008484846124fa565b610b865760405162461bcd60e51b8152600401610a5090613649565b6000807f7fffffffffffffffffffffffffffffff5d576e7357a4501ddfe92f46681b20a0831115612b245750600090506003612bd1565b8460ff16601b14158015612b3c57508460ff16601c14155b15612b4d5750600090506004612bd1565b6040805160008082526020820180845289905260ff881692820192909252606081018690526080810185905260019060a0016020604051602081039080840390855afa158015612ba1573d6000803e3d6000fd5b5050604051601f1901519150506001600160a01b038116612bca57600060019250925050612bd1565b9150600090505b94509492505050565b6000806001600160ff1b03831660ff84901c601b01612bfb87828885612aed565b935093505050935093915050565b60006001600160e01b03198216637965db0b60e01b14806109d357506301ffc9a760e01b6001600160e01b03198316146109d3565b6001600160a01b038316612c9957612c9481600a80546000838152600b60205260408120829055600182018355919091527fc65a7bb8d6351c1cf70c95a316cc6a92839c986682d98bc35f958f4883f9d2a80155565b612cbc565b816001600160a01b0316836001600160a01b031614612cbc57612cbc8382612e35565b6001600160a01b038216612cd357610b8681612ed2565b826001600160a01b0316826001600160a01b031614610b8657610b868282612f81565b6001600160a01b038216612d4c5760405162461bcd60e51b815260206004820181905260248201527f4552433732313a206d696e7420746f20746865207a65726f20616464726573736044820152606401610a50565b612d5581611762565b15612da25760405162461bcd60e51b815260206004820152601c60248201527f4552433732313a20746f6b656e20616c7265616479206d696e746564000000006044820152606401610a50565b612dae60008383612417565b6001600160a01b0382166000908152600560205260408120805460019290612dd7908490613631565b909155505060008181526004602052604080822080546001600160a01b0319166001600160a01b03861690811790915590518392907fddf252ad1be2c89b69c2b068fc378daa952ba7f163c4a11628f55a4df523b3ef908290a45050565b60006001612e4284611096565b612e4c919061361a565b600083815260096020526040902054909150808214612e9f576001600160a01b03841660009081526008602090815260408083208584528252808320548484528184208190558352600990915290208190555b5060009182526009602090815260408084208490556001600160a01b039094168352600881528383209183525290812055565b600a54600090612ee49060019061361a565b6000838152600b6020526040812054600a8054939450909284908110612f0c57612f0c6134c9565b9060005260206000200154905080600a8381548110612f2d57612f2d6134c9565b6000918252602080832090910192909255828152600b9091526040808220849055858252812055600a805480612f6557612f65613855565b6001900381819060005260206000200160009055905550505050565b6000612f8c83611096565b6001600160a01b039093166000908152600860209081526040808320868452825280832085905593825260099052919091209190915550565b828054612fd1906134df565b90600052602060002090601f016020900481019282612ff35760008555613039565b82601f1061300c57805160ff1916838001178555613039565b82800160010185558215613039579182015b8281111561303957825182559160200191906001019061301e565b50613045929150613049565b5090565b5b80821115613045576000815560010161304a565b6001600160e01b031981168114610db657600080fd5b60006020828403121561308657600080fd5b81356111d48161305e565b60005b838110156130ac578181015183820152602001613094565b838111156113b55750506000910152565b600081518084526130d5816020860160208601613091565b601f01601f19169290920160200192915050565b6020815260006111d460208301846130bd565b60006020828403121561310e57600080fd5b5035919050565b80356001600160a01b038116811461312c57600080fd5b919050565b6000806040838503121561314457600080fd5b61314d83613115565b946020939093013593505050565b6000806040838503121561316e57600080fd5b50508035926020909101359150565b60008060006060848603121561319257600080fd5b61319b84613115565b92506131a960208501613115565b9150604084013590509250925092565b634e487b7160e01b600052604160045260246000fd5b600082601f8301126131e057600080fd5b813567ffffffffffffffff808211156131fb576131fb6131b9565b604051601f8301601f19908116603f01168101908282118183101715613223576132236131b9565b8160405283815286602085880101111561323c57600080fd5b836020870160208301376000602085830101528094505050505092915050565b6000806040838503121561326f57600080fd5b82359150602083013567ffffffffffffffff81111561328d57600080fd5b613299858286016131cf565b9150509250929050565b600080604083850312156132b657600080fd5b823591506132c660208401613115565b90509250929050565b8035801515811461312c57600080fd5b600080600080600060a086880312156132f757600080fd5b853594506020860135935060408601359250606086013567ffffffffffffffff81111561332357600080fd5b61332f888289016131cf565b92505061333e608087016132cf565b90509295509295909350565b60006020828403121561335c57600080fd5b6111d482613115565b6000806040838503121561337857600080fd5b61338183613115565b91506132c6602084016132cf565b600080600080608085870312156133a557600080fd5b6133ae85613115565b93506133bc60208601613115565b925060408501359150606085013567ffffffffffffffff8111156133df57600080fd5b6133eb878288016131cf565b91505092959194509250565b60008060006060848603121561340c57600080fd5b8335925061341c60208501613115565b9150604084013567ffffffffffffffff81111561343857600080fd5b613444868287016131cf565b9150509250925092565b6000806040838503121561346157600080fd5b61346a83613115565b91506132c660208401613115565b60208082526031908201527f4552433732313a207472616e736665722063616c6c6572206973206e6f74206f6040820152701ddb995c881b9bdc88185c1c1c9bdd9959607a1b606082015260800190565b634e487b7160e01b600052603260045260246000fd5b600181811c908216806134f357607f821691505b6020821081141561351457634e487b7160e01b600052602260045260246000fd5b50919050565b60208082526011908201527010dbdb1b1958dd1a5bdb88199a5b1b1959607a1b604082015260600190565b602080825260149082015273151bdad95b88191bd95cc81b9bdd08195e1a5cdd60621b604082015260600190565b60008151613585818560208601613091565b9290920192915050565b7f416363657373436f6e74726f6c3a206163636f756e74200000000000000000008152600083516135c7816017850160208801613091565b7001034b99036b4b9b9b4b733903937b6329607d1b60179184019182015283516135f8816028840160208801613091565b01602801949350505050565b634e487b7160e01b600052601160045260246000fd5b60008282101561362c5761362c613604565b500390565b6000821982111561364457613644613604565b500190565b60208082526032908201527f4552433732313a207472616e7366657220746f206e6f6e20455243373231526560408201527131b2b4bb32b91034b6b83632b6b2b73a32b960711b606082015260800190565b600080845481600182811c9150808316806136b757607f831692505b60208084108214156136d757634e487b7160e01b86526022600452602486fd5b8180156136eb57600181146136fc57613729565b60ff19861689528489019650613729565b60008b81526020902060005b868110156137215781548b820152908501908301613708565b505084890196505b50505050505061374d61373c8286613573565b64173539b7b760d91b815260050190565b95945050505050565b600081600019048311821515161561377057613770613604565b500290565b60008161378457613784613604565b506000190190565b6001600160a01b03858116825284166020820152604081018390526080606082018190526000906137bf908301846130bd565b9695505050505050565b6000602082840312156137db57600080fd5b81516111d48161305e565b60006000198214156137fa576137fa613604565b5060010190565b634e487b7160e01b600052601260045260246000fd5b60008261382657613826613801565b500490565b60008261383a5761383a613801565b500690565b634e487b7160e01b600052602160045260246000fd5b634e487b7160e01b600052603160045260246000fdfe850d585eb7f024ccee5e68e55f2c26cc72e1e6ee456acf62135757a5eb9d4a10a2646970667358221220040ec23267e44254eb28b5fad432ac5ee7013965bc7dd0e8d98f23166b28514964736f6c63430008090033",
  "linkReferences": {},
  "deployedLinkReferences": {}
}